{
  "contractName": "Token",
  "abi": [
    {
      "constant": true,
      "inputs": [],
      "name": "name",
      "outputs": [
        {
          "name": "",
          "type": "string"
        }
      ],
      "payable": false,
      "stateMutability": "view",
      "type": "function"
    },
    {
      "constant": true,
      "inputs": [],
      "name": "totalSupply",
      "outputs": [
        {
          "name": "",
          "type": "uint256"
        }
      ],
      "payable": false,
      "stateMutability": "view",
      "type": "function"
    },
    {
      "constant": true,
      "inputs": [],
      "name": "decimals",
      "outputs": [
        {
          "name": "",
          "type": "uint256"
        }
      ],
      "payable": false,
      "stateMutability": "view",
      "type": "function"
    },
    {
      "constant": true,
      "inputs": [
        {
          "name": "",
          "type": "address"
        }
      ],
      "name": "balanceOf",
      "outputs": [
        {
          "name": "",
          "type": "uint256"
        }
      ],
      "payable": false,
      "stateMutability": "view",
      "type": "function"
    },
    {
      "constant": true,
      "inputs": [],
      "name": "symbol",
      "outputs": [
        {
          "name": "",
          "type": "string"
        }
      ],
      "payable": false,
      "stateMutability": "view",
      "type": "function"
    },
    {
      "constant": true,
      "inputs": [
        {
          "name": "",
          "type": "address"
        },
        {
          "name": "",
          "type": "address"
        }
      ],
      "name": "allowance",
      "outputs": [
        {
          "name": "",
          "type": "uint256"
        }
      ],
      "payable": false,
      "stateMutability": "view",
      "type": "function"
    },
    {
      "inputs": [],
      "payable": false,
      "stateMutability": "nonpayable",
      "type": "constructor"
    },
    {
      "anonymous": false,
      "inputs": [
        {
          "indexed": true,
          "name": "from",
          "type": "address"
        },
        {
          "indexed": false,
          "name": "to",
          "type": "address"
        },
        {
          "indexed": false,
          "name": "value",
          "type": "uint256"
        }
      ],
      "name": "Transfer",
      "type": "event"
    },
    {
      "constant": false,
      "inputs": [
        {
          "name": "_to",
          "type": "address"
        },
        {
          "name": "_value",
          "type": "uint256"
        }
      ],
      "name": "transfer",
      "outputs": [
        {
          "name": "success",
          "type": "bool"
        }
      ],
      "payable": false,
      "stateMutability": "nonpayable",
      "type": "function"
    }
  ],
  "bytecode": "0x60806040526040805190810160405280600a81526020017f4441707020546f6b656e000000000000000000000000000000000000000000008152506000908051906020019061004f92919061010a565b506040805190810160405280600481526020017f44415050000000000000000000000000000000000000000000000000000000008152506001908051906020019061009b92919061010a565b5060126002553480156100ad57600080fd5b50600254600a0a620f424002600381905550600354600460003373ffffffffffffffffffffffffffffffffffffffff1673ffffffffffffffffffffffffffffffffffffffff168152602001908152602001600020819055506101af565b828054600181600116156101000203166002900490600052602060002090601f016020900481019282601f1061014b57805160ff1916838001178555610179565b82800160010185558215610179579182015b8281111561017857825182559160200191906001019061015d565b5b509050610186919061018a565b5090565b6101ac91905b808211156101a8576000816000905550600101610190565b5090565b90565b610818806101be6000396000f3fe608060405260043610610083576000357c0100000000000000000000000000000000000000000000000000000000900463ffffffff16806306fdde031461008857806318160ddd14610118578063313ce5671461014357806370a082311461016e57806395d89b41146101d3578063a9059cbb14610263578063dd62ed3e146102d6575b600080fd5b34801561009457600080fd5b5061009d61035b565b6040518080602001828103825283818151815260200191508051906020019080838360005b838110156100dd5780820151818401526020810190506100c2565b50505050905090810190601f16801561010a5780820380516001836020036101000a031916815260200191505b509250505060405180910390f35b34801561012457600080fd5b5061012d6103f9565b6040518082815260200191505060405180910390f35b34801561014f57600080fd5b506101586103ff565b6040518082815260200191505060405180910390f35b34801561017a57600080fd5b506101bd6004803603602081101561019157600080fd5b81019080803573ffffffffffffffffffffffffffffffffffffffff169060200190929190505050610405565b6040518082815260200191505060405180910390f35b3480156101df57600080fd5b506101e861041d565b6040518080602001828103825283818151815260200191508051906020019080838360005b8381101561022857808201518184015260208101905061020d565b50505050905090810190601f1680156102555780820380516001836020036101000a031916815260200191505b509250505060405180910390f35b34801561026f57600080fd5b506102bc6004803603604081101561028657600080fd5b81019080803573ffffffffffffffffffffffffffffffffffffffff169060200190929190803590602001909291905050506104bb565b604051808215151515815260200191505060405180910390f35b3480156102e257600080fd5b50610345600480360360408110156102f957600080fd5b81019080803573ffffffffffffffffffffffffffffffffffffffff169060200190929190803573ffffffffffffffffffffffffffffffffffffffff169060200190929190505050610784565b6040518082815260200191505060405180910390f35b60008054600181600116156101000203166002900480601f0160208091040260200160405190810160405280929190818152602001828054600181600116156101000203166002900480156103f15780601f106103c6576101008083540402835291602001916103f1565b820191906000526020600020905b8154815290600101906020018083116103d457829003601f168201915b505050505081565b60035481565b60025481565b60046020528060005260406000206000915090505481565b60018054600181600116156101000203166002900480601f0160208091040260200160405190810160405280929190818152602001828054600181600116156101000203166002900480156104b35780601f10610488576101008083540402835291602001916104b3565b820191906000526020600020905b81548152906001019060200180831161049657829003601f168201915b505050505081565b60008073ffffffffffffffffffffffffffffffffffffffff168373ffffffffffffffffffffffffffffffffffffffff161415151561053c576040517f08c379a0000000000000000000000000000000000000000000000000000000008152600401808060200182810382526000815260200160200191505060405180910390fd5b81600460003373ffffffffffffffffffffffffffffffffffffffff1673ffffffffffffffffffffffffffffffffffffffff16815260200190815260200160002054101515156105ce576040517f08c379a0000000000000000000000000000000000000000000000000000000008152600401808060200182810382526000815260200160200191505060405180910390fd5b61062082600460003373ffffffffffffffffffffffffffffffffffffffff1673ffffffffffffffffffffffffffffffffffffffff168152602001908152602001600020546107a990919063ffffffff16565b600460003373ffffffffffffffffffffffffffffffffffffffff1673ffffffffffffffffffffffffffffffffffffffff168152602001908152602001600020819055506106b582600460008673ffffffffffffffffffffffffffffffffffffffff1673ffffffffffffffffffffffffffffffffffffffff168152602001908152602001600020546107cb90919063ffffffff16565b600460008573ffffffffffffffffffffffffffffffffffffffff1673ffffffffffffffffffffffffffffffffffffffff168152602001908152602001600020819055503373ffffffffffffffffffffffffffffffffffffffff167fddf252ad1be2c89b69c2b068fc378daa952ba7f163c4a11628f55a4df523b3ef8484604051808373ffffffffffffffffffffffffffffffffffffffff1673ffffffffffffffffffffffffffffffffffffffff1681526020018281526020019250505060405180910390a26001905092915050565b6005602052816000526040600020602052806000526040600020600091509150505481565b60008282111515156107ba57600080fd5b600082840390508091505092915050565b60008082840190508381101515156107e257600080fd5b809150509291505056fea165627a7a723058204c7d03da1733996e9432b687d0b5086deeecc333bb268410fdcaf07de7f6c4380029",
  "source": "pragma solidity ^0.5.0;\r\nimport \"openzeppelin-solidity/contracts/math/SafeMath.sol\";\r\n//import \"https://github.com/OpenZeppelin/openzeppelin-solidity/blob/master/contracts/math/SafeMath.sol\";\r\n\r\ncontract Token{\r\n    using SafeMath for uint;\r\n\r\n    //variables\r\n    string public name = \"DApp Token\";\r\n    string public symbol = \"DAPP\";\r\n    uint256 public decimals = 18;\r\n    uint256 public totalSupply;\r\n    mapping(address => uint256) public balanceOf;\r\n    //address1 =>deployer address2=>exchange uint256=> amount exchange can spend\r\n   mapping(address => mapping(address=> uint256)) public allowance;\r\n\r\n    //Events\r\n    event Transfer(address indexed from, address to, uint256 value);\r\n\r\n        constructor() public{\r\n        totalSupply = 1000000 * (10**decimals);\r\n        balanceOf[msg.sender] = totalSupply;//person who deployed contract\r\n    }\r\n\r\n    function transfer(address _to, uint256 _value) public returns (bool success){\r\n        require(_to != address(0), \"\");\r\n        require(balanceOf[msg.sender] >= _value, \"\");\r\n        balanceOf[msg.sender] = balanceOf[msg.sender].sub(_value);\r\n        balanceOf[_to] = balanceOf[_to].add(_value);\r\n        emit Transfer(msg.sender, _to, _value);\r\n        return true;\r\n    }\r\n    \r\n    //Approve tokens\r\n    //function approve(address _spender, uint256 _value) public returns (bool success){\r\n       // allowance[msg.sender][_spender]= _value;\r\n   // }\r\n\r\n    //Transfer from\r\n    //function transferFrom(address _from, address _to, uint256 _value) public returns (bool success)\r\n}",
  "sourcePath": "C:/Users/David/Desktop/DApp_Dev/blockchain-developer-bootcamp/src/contracts/Token.sol",
  "compiler": {
    "name": "solc",
    "version": "0.5.0+commit.1d4f565a.Emscripten.clang"
  },
  "schemaVersion": "3.0.1",
  "updatedAt": "2019-07-16T11:19:07.316Z",
  "devdoc": {
    "methods": {}
  },
  "userdoc": {
    "methods": {}
  }
}